:100000000C9462000C948A000C948A000C948A0070
:100010000C948A000C948A000C948A000C948A0038
:100020000C948A000C948A000C948A000C948A0028
:100030000C948A000C948A000C948A000C948A0018
:100040000C945E080C948A000C94CE080C94A808BA
:100050000C948A000C948A000C948A000C948A00F8
:100060000C948A000C948A00000000080002010031
:100070000003040700000000000000000000000072
:10008000240027002A000000000023002600290089
:1000900000000000250028002B00040404040404D0
:1000A0000404020202020202030303030303010227
:1000B00004081020408001020408102001020408F6
:1000C0001020000911241FBECFEFD8E0DEBFCDBF46
:1000D00011E0A0E0B1E0E8E8FDE202C005900D9279
:1000E000AC34B107D9F723E0ACE4B1E001C01D9214
:1000F000AA30B207E1F710E0C2E6D0E004C02197D1
:10010000FE010E940114C136D107C9F70E944109BE
:100110000C94C2160C940000DC0117962C911797D2
:1001200030E0F901E255FF4FE4911696EC931697F3
:1001300026563F4FF9018491E82FF0E0EE0FFF1FA4
:10014000E057FF4F8591949113969C938E9312974D
:10015000F9012491E22FF0E0EE0FFF1FEA57FF4F65
:100160008591949115969C938E931497089590E0A1
:10017000FC01E255FF4F249186569F4FFC0184916C
:10018000882399F090E0880F991FFC01E458FF4FF5
:10019000A591B491FC01E057FF4F859194918FB7E1
:1001A000F894EC91E22BEC938FBF089590E0FC0162
:1001B000E859FF4F2491FC01E255FF4F3491FC01B7
:1001C000E656FF4FE491EE23C1F1222339F02330AC
:1001D000E9F090F4213001F1223011F1F0E0EE0F5E
:1001E000FF1FEA57FF4FA591B491EC91E32381E003
:1001F00090E029F580E008952730A9F02830C9F073
:10020000243061F7809180008F7D03C08091800051
:100210008F7780938000E2CF84B58F7784BDDECF67
:1002200084B58F7DFBCF8091B0008F778093B00035
:10023000D5CF8091B0008F7DF9CF80E090E0089518
:100240003FB7F8948091970190919801A0919901FE
:10025000B0919A0126B5A89B05C02F3F19F00196D1
:10026000A11DB11D3FBFBA2FA92F982F8827BC0110
:10027000CD01620F711D811D911D42E0660F771F38
:10028000881F991F4A95D1F708952FB7F894609168
:1002900093017091940180919501909196012FBFE7
:1002A000089580E991E00895AF92BF92CF92DF92D6
:1002B000EF92FF920F931F93CF93DF936C017B011B
:1002C0008B01040F151FEB015E01AE18BF08C017AC
:1002D000D10759F06991D601ED91FC910190F0811F
:1002E000E02DC6010995892B79F7C501DF91CF91E2
:1002F0001F910F91FF90EF90DF90CF90BF90AF9044
:100300000895FC01538D448D252F30E0842F90E01B
:10031000821B930B541710F0CF9608950197089500
:10032000FC01918D828D981761F0A28DAE0FBF2FC9
:10033000B11D5D968C91928D9F5F9F73928F90E01F
:1003400008958FEF9FEF0895FC01918D828D98178E
:1003500031F0828DE80FF11D858D90E008958FEFCB
:100360009FEF0895FC01918D228D892F90E0805C94
:100370009F4F821B91098F73992708958CEA91E012
:100380000E94B20121E0892B09F420E0822F089518
:1003900080E090E0892B29F00E94BE0181110C942D
:1003A00000000895FC01A48DA80FB92FB11DA35A18
:1003B000BF4F2C91848D90E001968F739927848F85
:1003C000A689B7892C93A089B1898C9183708064A8
:1003D0008C93938D848D981306C00288F389E02D49
:1003E00080818F7D80830895EF92FF920F931F93FA
:1003F000CF93DF93EC0181E0888F9B8D8C8D9813D8
:100400001AC0E889F989808185FF15C09FB7F894E3
:10041000EE89FF896083E889F9898081837080642F
:1004200080839FBF81E090E0DF91CF911F910F917A
:10043000FF90EF900895F62E0B8D10E00F5F1F4F89
:100440000F731127E02E8C8D8E110CC00FB607FC98
:10045000FACFE889F989808185FFF5CFCE010E9426
:10046000D201F1CFEB8DEC0FFD2FF11DE35AFF4FC1
:10047000F0829FB7F8940B8FEA89FB8980818062B4
:10048000CFCFCF93DF93EC01888D8823B9F0AA8971
:10049000BB89E889F9898C9185FD03C0808186FD3F
:1004A0000DC00FB607FCF7CF8C9185FFF2CF80818E
:1004B00085FFEDCFCE010E94D201E9CFDF91CF9130
:1004C00008950F931F93CF93DF9320914D012F5FDA
:1004D000322F377030934D0120FF2BC020E831FDC3
:1004E0002064347009F02062205FFC01EC01239647
:1004F00000E011E06485662329F070E0C8010E94E5
:10050000ED136F5F6187322F369F030E30E0311D90
:100510001124311110C01682662311F061506187D9
:100520003196EC17FD0731F7DF91CF911F910F91B5
:10053000089520E0D4CF31503683EECF4F925F92B2
:100540007F928F929F92AF92BF92CF92DF92EF9263
:10055000FF920F931F93CF93DF932C01EB010E9427
:100560002001F20127853089621B730B6A30710507
:10057000B0F3F8948A819B81181619060CF0CDC14E
:10058000E881F9816BB1862E689483F83BB1377F9F
:100590003BB9DA848F812D2D281B822F2F834F8525
:1005A000042E000C550BAA81BB817D85FC84EE8452
:1005B0007F5FF394E3949E819884B984AB84118126
:1005C000C12C6C2D0C2D2C2D2181112788942111EB
:1005D000280F08F42FEF8195889470FD120F17955E
:1005E000889471FD120F1795889472FD120F17955C
:1005F000889473FD120F1795889474FD120F179548
:10060000889475FD120F1795889476FD120F179533
:10061000889477FD120F17958894622F7111612FBE
:100620008D0D162F002C8BB800C017FF3BB9208111
:100630006627889400C000C0002C3BB92111290F07
:1006400000C0002C8BB800C016FF3BB908F42FEF98
:100650009195889400C000C0002C3BB9F0FC620F5B
:1006600000C0002C8BB800C015FF3BB9679588947B
:10067000F1FC620F00C000C0002C3BB96795889464
:1006800000C0002C8BB800C014FF3BB9F2FC620F15
:100690006795889400C000C0002C3BB9F3FC620F42
:1006A00000C0002C8BB800C013FF3BB9679588943D
:1006B000F4FC620F00C000C0002C3BB96795889421
:1006C00000C0002C8BB800C012FF3BB9F5FC620FD4
:1006D0006795889400C000C0002C3BB9F6FC620FFF
:1006E00000C0002C8BB800C011FF3BB967958894FF
:1006F000F7FC620F00C000C0002C3BB967958894DE
:1007000000C0002C8BB800C010FF3BB9122FF110B5
:10071000162F9B0D00C000C0002C3BB900C000C0CC
:10072000002C8BB800C017FF3BB922816627889444
:1007300000C000C0002C3BB92111290D00C0002CC5
:100740008BB800C016FF3BB908F42FEFE40FF51F7C
:1007500000C000C0002C3BB9E0FC620F00C0002CC0
:100760008BB800C015FF3BB967958894E1FC620F18
:1007700000C000C0002C3BB96795889400C0002CD5
:100780008BB800C014FF3BB9E2FC620F67958894F8
:1007900000C000C0002C3BB9E3FC620F00C0002C7D
:1007A0008BB800C013FF3BB967958894E4FC620FD7
:1007B00000C000C0002C3BB96795889400C0002C95
:1007C0008BB800C012FF3BB9E5FC620F67958894B7
:1007D00000C000C0002C3BB9E6FC620F00C0002C3A
:1007E0008BB800C011FF3BB967958894E7FC620F96
:1007F00000C000C0002C3BB96795889400C0002C55
:100800008BB800C010FF3BB9122FE110162F919446
:1008100000C000C0002C3BB99A0C00C000C08BB8CF
:1008200000C017FF3BB921816627889400C000C033
:10083000002C3BB92111280F00C0002C8BB800C040
:1008400016FF3BB908F42FEF8195889400C000C0D3
:10085000002C3BB970FD620F00C0002C8BB800C0AB
:1008600015FF3BB96795889471FD620F00C000C009
:10087000002C3BB96795889400C0002C8BB800C051
:1008800014FF3BB972FD620F6795889400C000C0E9
:10089000002C3BB973FD620F00C0002C8BB800C068
:1008A00013FF3BB96795889474FD620F00C000C0C8
:1008B000002C3BB96795889400C0002C8BB800C011
:1008C00012FF3BB975FD620F6795889400C000C0A8
:1008D000002C3BB976FD620F00C0002C8BB800C025
:1008E00011FF3BB96795889477FD620F00C000C087
:1008F000002C3BB96795889400C0002C8BB800C0D1
:1009000010FF3BB9122F7111162F8D0D00C000C0C2
:10091000002C3BB9119709F086CE4A815B8120EE0D
:1009200031E0DA010E940714DC01CB01F4E0B69556
:10093000A79597958795FA95D1F730E020E0B90112
:10094000EAE94E9F040E611D5E9F600D711D11242A
:10095000650F711D860F971FA11DB11D893E43E0D4
:100960009407A105B10508F434C0885E9340A1093D
:10097000B10942E0B695A795979587954A95D1F725
:1009800047E0849F080E211D949F200D311D1124E6
:10099000290F311D60914C0170E0860F971F820F67
:1009A000931F409193015091940160919501709132
:1009B0009601292F3327420F531F611D711D40934C
:1009C00093015093940160939501709396018093E5
:1009D0004C0178940E942001F201708B6787DF91AF
:1009E000CF911F910F91FF90EF90DF90CF90BF902C
:1009F000AF909F908F907F905F904F900895539A03
:100A000008956F927F928F92CF92DF92EF92FF9232
:100A10000F931F93CF93DF93CDB7DEB762970FB6D7
:100A2000F894DEBF0FBECDBF6C017A013801822E73
:100A3000DC011C962C91CA0157FF04C08827992716
:100A4000841B950B7A8369839C838B839E838D8320
:100A50006D867E868F86213049F5CE0101960E94F3
:100A6000610283E0888B1A8A198AF7FE02C08DEF33
:100A7000888BD601ED91FC910484F585E02DBE01B3
:100A80006F5F7F4FC601099562960FB6F894DEBF7F
:100A90000FBECDBFDF91CF911F910F91FF90EF90CF
:100AA000DF90CF908F907F906F9008951C861B866B
:100AB0001A86198618861F82D4CFEF92FF920F9361
:100AC0001F93CF93DF93CDB7DEB762970FB6F8943D
:100AD000DEBF0FBECDBF7C01DC011C968C917A83FA
:100AE00069835C834B835E834D830D871E872F87CD
:100AF0008130F9F4CE0101960E946102188A1A8AA7
:100B0000198AD701ED91FC910484F585E02DBE0191
:100B10006F5F7F4FC701099562960FB6F894DEBFED
:100B20000FBECDBFDF91CF911F910F91FF90EF903E
:100B300008951C861B861A86198618861F82DECFAA
:100B4000CF92DF92EF92FF9260919B0170919C0196
:100B500080919D0190919E0120917501222339F190
:100B60002DEC3CEC4CE45DE30E94231460939B016C
:100B700070939C0180939D0190939E01C0909B0176
:100B8000D0909C01E0909D01F0909E0120E030E02B
:100B900040E85FE3C701B6010E94461687FD0EC01C
:100BA00010927501FF90EF90DF90CF9008952DEC9B
:100BB0003CEC4CE45DE30E942214D8CF20E030E00E
:100BC00040E85EE3C701B6010E948F14181654F383
:100BD00081E080937501E6CFCF92DF92EF92FF9292
:100BE00060917C0170917D0180917E0190917F01E7
:100BF00020917501222309F44FC02DEC3CEC4CEC04
:100C00005EE30E94231460937C0170937D018093C6
:100C10007E0190937F01C0907C01D0907D01E09097
:100C20007E01F0907F01A7019601C701B6010E94E5
:100C30004B1622E539E44DE959E30E944B162DECA1
:100C40003CEC4CE45EE30E9422146093A301709399
:100C5000A4018093A5019093A6012DEC3CEC4CE4FB
:100C60005EE30E944B1660939F017093A0018093F6
:100C7000A1019093A20120E030E040E752E4C701D7
:100C8000B6010E94461687FD0EC010927501FF90B6
:100C9000EF90DF90CF9008952DEC3CEC4CEC5EE3B0
:100CA0000E942214B0CF20E030E0A901C701B601B4
:100CB0000E948F1418165CF381E080937501E7CFD2
:100CC0001092A3011092A4011092A5011092A60106
:100CD00010929F011092A0011092A1011092A20106
:100CE00010929B0110929C0110929D0110929E0106
:100CF00008950F931F93CF93DF93EC010E9445015A
:100D00000091A8011091A9012091AA013091AB0195
:100D1000AB01BC01401B510B620B730BCE01DD0F0D
:100D2000AA0BBB0B84179507A607B70780F4809121
:100D3000A70191E089278093A7010E944501609354
:100D4000A8017093A9018093AA019093AB018091AF
:100D5000A701882309F180E090E0A0E8BFE3809339
:100D6000A3019093A401A093A501B093A6011092B2
:100D70009F011092A0011092A1011092A201109265
:100D80009B0110929C0110929D0110929E01DF9197
:100D9000CF911F910F910895DF91CF911F910F91E6
:100DA0000C94600680E090E0A0E8BFE38093A3018C
:100DB0009093A401A093A501B093A60180939F01F5
:100DC0009093A001A093A101B093A20180939B01F5
:100DD00090939C01A0939D01B0939E0108950F9361
:100DE0001F93CF93DF9300D01F92CDB7DEB7AB0137
:100DF00019821A821B82DC01ED91FC910190F08135
:100E0000E02D00E010E020E0BE016F5F7F4F09950C
:100E10000F900F900F90DF91CF911F910F91089538
:100E20002F923F924F925F926F927F928F929F92FA
:100E3000AF92BF92CF92DF92EF92FF920F931F93E8
:100E4000CF93DF93CDB7DEB729970FB6F894DEBF07
:100E50000FBECDBF898749835A836B837C83009102
:100E60006F0110917001BDE78B2E912CA12CB12C3C
:100E70000115110509F46BC0D801ED91FC910084B6
:100E8000F185E02DC80109951C01D8011296ED915C
:100E9000FC91C12CD12C7601412C512C320120E047
:100EA00030E0A901009791F06081260F311D411DAE
:100EB000511D6181460E511C611C711C6281C60E60
:100EC000D11CE11CF11C01973396ECCFA0E5B0E0FA
:100ED0000E94A1136D837E838F839887A7E3B0E080
:100EE000A30192010E94A1132B013C01ABE4B0E0ED
:100EF000A70196010E94A1132D813E814F81588543
:100F0000C32ED42EE52EFF2445E0429D9001439D43
:100F1000300D1124C20ED31EE11CF11C8C0C9D1C43
:100F2000AE1CBF1C452C562C672C7724840C951CBA
:100F3000A61CB71C472F582F692F7727840E951EA4
:100F4000A61EB71ED80114960D911C9191CFB9859C
:100F5000CB2ED12CF12CE12CA7019601C501B401B7
:100F60000E94DD13872E982EA92EBB2429813A8159
:100F70004B815C8182169306A406B50668F0A70132
:100F8000960169817A818B819C810E94DD13A50184
:100F900094010E94AC132987898529960FB6F8948D
:100FA000DEBF0FBECDBFDF91CF911F910F91FF909C
:100FB000EF90DF90CF90BF90AF909F908F907F90F9
:100FC0006F905F904F903F902F900895FC01A28109
:100FD000B3819C9186812681982381E0921380E0E1
:100FE0000895FC0186810280F381E02D9081809537
:100FF000892380830895FC0196810280F381E02D8E
:101000008081892B80830895FC01858596850895CC
:1010100090E080E00895FC0101900020E9F731970D
:10102000AF01481B590BBC018CEA91E00C945401B0
:101030008F929F92AF92BF920F931F93CF93DF93A4
:10104000CDB7DEB7A1970FB6F894DEBF0FBECDBF08
:1010500019A2423008F44AE08E010F5D1F4F842E22
:10106000912CB12CA12CA50194010E94AC13E62F68
:10107000B901CA01EA30F4F4E05DD801EE938D01C4
:10108000232B242B252B79F790E080E0109719F083
:10109000CD010E940B08A1960FB6F894DEBF0FBEDB
:1010A000CDBFDF91CF911F910F91BF90AF909F90D7
:1010B0008F900895E95CE1CF0E94BD161F920F92B8
:1010C0000FB60F9211242F933F938F939F93AF935B
:1010D000BF938091930190919401A0919501B0915B
:1010E00096013091920123E0230F2D3758F5019698
:1010F000A11DB11D209392018093930190939401BF
:10110000A0939501B09396018091970190919801D9
:10111000A0919901B0919A010196A11DB11D8093F2
:10112000970190939801A0939901B0939A01BF9170
:10113000AF919F918F913F912F910F900FBE0F9084
:101140001F90189526E8230F0296A11DB11DD2CF3E
:101150001F920F920FB60F9211242F933F934F932C
:101160005F936F937F938F939F93AF93BF93EF930F
:10117000FF938CEA91E00E94D201FF91EF91BF9121
:10118000AF919F918F917F916F915F914F913F911F
:101190002F910F900FBE0F901F9018951F920F92D6
:1011A0000FB60F9211242F938F939F93EF93FF937A
:1011B000E091BC01F091BD018081E091C201F0910C
:1011C000C30182FD1BC090818091C5018F5F8F7329
:1011D0002091C601821741F0E091C501F0E0E4558D
:1011E000FE4F958F8093C501FF91EF919F918F9155
:1011F0002F910F900FBE0F901F9018958081F4CF04
:10120000ECEAF1E01382128288EE93E0A0E0B0E015
:1012100084839583A683B78386E291E0918380835C
:1012200085EC90E09587848784EC90E097878687AB
:1012300080EC90E0918B808B81EC90E0938B828BA3
:1012400082EC90E0958B848B86EC90E0978B868B7C
:10125000118E128E138E148EE9E4F2E01082118248
:101260001282EDEFF2E08FEF8083128211821486FA
:1012700013868FEF9FEFDC0187839087A187B2876A
:101280000895CF93DF93CDB7DEB72B970FB6F894C1
:10129000DEBF0FBECDBF789484B5826084BD84B5B7
:1012A000816084BD85B5826085BD85B5816085BD61
:1012B00080916E00816080936E0010928100809119
:1012C00081008260809381008091810081608093A1
:1012D0008100809180008160809380008091B100C6
:1012E00084608093B1008091B00081608093B000F1
:1012F00080917A00846080937A0080917A00826085
:1013000080937A0080917A00816080937A00809146
:101310007A00806880937A001092C1008DE00E946C
:10132000B70083E00E94B70080916101811145C040
:1013300010925301109252018FEF809356018093C7
:101340005701809358018093590180935A018093EB
:101350005B0181E080935C0110925E0110925D015F
:10136000109255011092540180916F01909170017B
:10137000892B31F480E591E09093700180936F01A7
:10138000E0914E01F0914F01309721F080E591E01E
:101390009583848380E591E090934F0180934E0183
:1013A0001092600110925F0184E191E090935101ED
:1013B0008093500181E080936101539A89E492E027
:1013C00090935301809352018CE390E090935E01DF
:1013D00080935D018091000390910103A09102032D
:1013E000B0910303843C29E09207A105B10520F4E4
:1013F00084EC99E0A0E0B0E08093000390930103B7
:10140000A0930203B09303038FEF8093FD0280E16A
:1014100097E0909309038093080384EC99E0A0E09F
:10142000B0E08093040390930503A0930603B09368
:101430000703E091BC01F091BD0182E08083E0915F
:10144000B801F091B9011082E091BA01F091BB01AD
:101450008FEC80831092C401E091C001F091C10132
:1014600086E08083E091BE01F091BF0180818061C0
:101470008083E091BE01F091BF018081886080830C
:10148000E091BE01F091BF01808180688083E0918E
:10149000BE01F091BF0180818F7D808384E391E064
:1014A0000E940B088CE391E00E940B0880918A0156
:1014B000811119C00E9445016093820170938301DC
:1014C000809384019093850184E190E0A0E0B0E0F6
:1014D0008093860190938701A0938801B09389013E
:1014E00091E090938A010E94450100918201109140
:1014F00083012091840130918501601B710B820B67
:10150000930B009186011091870120918801309101
:101510008901601771078207930710F40C948D13EB
:101520000E9445016093820170938301809384013E
:10153000909385018CE00E94D60031E020E0892B59
:1015400009F430E0032F122F8BE00E94D600892B84
:1015500011F00E5F1F4F8AE00E94D600892B11F018
:101560000C5F1F4F89E00E94D600892B11F0085FA5
:101570001F4F88E00E94D600892B11F0005F1F4F9B
:101580008091800190918101F80131978017910736
:1015900009F4B5C01092A3011092A4011092A50104
:1015A0001092A60110929F011092A0011092A10129
:1015B0001092A20110929B0110929C0110929D0129
:1015C00010929E0110927C0110927D0110927E017A
:1015D00010927F0110927B0110927A011092790192
:1015E0001092780110927701109276010A3011055D
:1015F00009F475C00CF033C00130110509F456C070
:101600000930110509F45BC010938101009380013A
:10161000EE31F10510F00C944713EF5EF44F0C948B
:1016200001149D13410D460DA00EA30EA00EB40E85
:10163000A00E9D0FA00FE90F5510A010A310DF10F2
:10164000DF10EC10EF101C1140118C11D411E511BA
:10165000FE114A125B12460D6C12C112FF120E30BF
:10166000110521F00831110509F0CECF80E090E09E
:10167000A0E0BFE38093A3019093A401A093A501F0
:10168000B093A60180939B0190939C01A0939D0130
:10169000B0939E0180939F019093A001A093A1011C
:1016A000B093A20121E020937501AECF1093790190
:1016B000009378011093770100937601A5CF80E025
:1016C00090E0A0E0BFE380939B0190939C01A093E6
:1016D0009D01B0939E01A1E0A093750195CF80E09C
:1016E00090E0A0E0BFE380939F019093A001A093BE
:1016F000A101B093A201B1E0B093750185CFEE31A5
:10170000F10508F0C4C7E957F44F0C940114A50B78
:10171000410D460DA00EA30EA00EB40EA00E9D0FFF
:10172000A00FE90F5510A010A310DF10DF10EC1070
:10173000EF101C1140118C11D411E511FE114A1249
:101740005B12460D6C12C112FF1280917A019091CA
:101750007B010196883631E093072CF490937B014E
:1017600080937A0104C010927B0110927A018091DB
:101770007A0190917B0197FD02C18936A1E09A0719
:1017800014F088E691E090937B0180937A01809138
:10179000780190917901823091050CF4F5C0E1E077
:1017A000F0E0F0937901E0937801809176019091D7
:1017B0007701823091050CF4EEC021E030E03093E7
:1017C00077012093760160917A0170917B01072E59
:1017D000000C880B990B0E943E156B017C01009157
:1017E0007801109179016091760170917701072E4F
:1017F000000C880B990B0E943E15962E872E382ED2
:10180000292E20E030E0A901C701B6010E948F1403
:1018100087FF0AC020E030E044EB53E4C701B60183
:101820000E9423146B017C0120E030E044EB53E480
:10183000C701B6010E94461687FD0AC020E030E0CD
:1018400044EB53E4C701B6010E9422146B017C01F2
:1018500020E030E0A901692D782D832D922D0E9482
:101860008F1418160CF0F7C0B801110F880B990BE4
:101870000E943E152B013C0120E030E0A9010E94AE
:101880008F1418160CF0F4C020E030E040E752E46A
:10189000C701B6010E9494146B017C010E94791566
:1018A0000E9406156C837D838E839F83AC81BD81EE
:1018B000BD01BB0F880B990B0E943E159B01AC012B
:1018C000C701B6010E942214688779878A879B879F
:1018D000A301920160E070E080E89FE30E9422147F
:1018E000292D382D432D522D0E944B167B018C0142
:1018F000288539854A855B85C301B2010E944B1654
:101900009B01AC0160E070E080E89FE30E9422143C
:10191000292D382D432D522D0E944B165B016C0151
:10192000288539854A855B8560E070E080E89FE323
:101930000E942214A30192010E944B169B01AC014C
:1019400060E070E080E89FE30E942214292D382D8A
:10195000432D522D0E944B16EC81FD813196E830CB
:10196000F10508F085C0E954F34F0C9401141A0DE9
:10197000D20CDA0CFB0C000D0D0D1A0DD20C1092CE
:101980007B0110927A0103CF97FF0FCF109279015C
:10199000109278010ACF97FF16CF1092770110921C
:1019A000760111CFA92CB82CC32CD22C962E872EC1
:1019B000382E292EC501D6018093A3019093A4014E
:1019C000A093A501B093A601892D982DA32DB22D2A
:1019D00080939B0190939C01A0939D01B0939E01E5
:1019E000C701D80180939F019093A001A093A1010A
:1019F000B093A2014DC0570168017B018C01DACF81
:101A00003A2D2B2D9C2D8D2D57016801E92CF82C9A
:101A1000032D122D49011C01CDCFA40191019E2C53
:101A20008F2C302E212EE52EF42E032F122F5B014A
:101A30006C01C0CF3A2D2B2D9C2D8D2DA92CB82CAF
:101A4000C32CD22C9E2C8F2C302E212EE32EF22E46
:101A5000092F182FAFCFE12CF12C00E010E0912CD2
:101A6000812C312C212CA12CB12CC12CD12CA2CF1A
:101A7000E92CF82C032D122DA92CB82CC32CD22C18
:101A800099CF84EF91E00E94790602C00E94D206AD
:101A9000C090A301D090A401E090A501F090A60110
:101AA00020E030E0A901C701B6010E948F1487FF32
:101AB00003C0C12CD12C760180909F019090A00191
:101AC000A090A101B090A20120E030E0A901C501E1
:101AD000B4010E948F1487FF03C0812C912C540104
:101AE00040909B0150909C0160909D0170909E01E0
:101AF00020E030E0A901C301B2010E948F1487FFEA
:101B000003C0412C512C320120E030E040E85FE37B
:101B1000C701B6010E944616181634F4C12CD12C08
:101B200020E8E22E2FE3F22EC092A301D092A4016E
:101B3000E092A501F092A60120E030E040E85FE3EA
:101B4000C501B4010E944616181634F4812C912C5C
:101B500090E8A92E9FE3B92E80929F019092A00158
:101B6000A092A101B092A20120E030E040E85FE342
:101B7000C301B2010E944616181634F4412C512CB0
:101B800080E8682E8FE3782E40929B0150929C0152
:101B900060929D0170929E0120E030E04FE753E497
:101BA000C301B2010E944B160E940615162F20E0B9
:101BB00030E04FE753E4C501B4010E944B160E9488
:101BC0000615062F20E030E04FE753E4C701B601C9
:101BD0000E944B160E940615E9E4F2E0608301833F
:101BE00012833396ADEFB2E0AE17BF07B9F780911D
:101BF000000390910103A0910203B0910303892B8C
:101C00008A2B8B2BD9F00E94200100917101109139
:101C100072012091730130917401601B710B820B72
:101C2000930B009100031091010320910203309166
:101C300003036017710782079307C8F20E9420010F
:101C4000609371017093720180937301909374019A
:101C5000E0910803F0910903DD24DA94309759F0FC
:101C600040910403509105036091060370910703AE
:101C70008FEF0995D82EE0906F01F09070018D2CB8
:101C8000912CB12CA12CE114F10409F403C5F70146
:101C9000C4848091FE029091FF028436910508F47D
:101CA0001486D701ED91FC916280738019821A82AB
:101CB0001B82DD2091F187010A5F1F4FF0E0E0E019
:101CC000D8012D918D01222321F112965C9055208F
:101CD00001F130E050E040E02F5F3F4F4F4F5F4F4A
:101CE000C501B4010E94DD139B01AC01852D90E07C
:101CF000B0E0A0E0BC01CD016F5F7F4F8F4F9F4FE1
:101D00000E94DD13A1E0B0E0AC0FBD1FAE0FBF1FFE
:101D10008C933196E330F10599F609811A812B8174
:101D2000F7014585568562817381C701F3010995E5
:101D3000D7011C96CC921C971496ED90FC90A3CFE3
:101D40000E94EC05A5CE80E090E0A0E8BFE3809380
:101D5000A3019093A401A093A501B093A6018DECDB
:101D60009CECACE4BEE33ECE809175012AE037EDF9
:101D700043E25CE38823B9F160919F017091A00177
:101D80008091A1019091A2010E94231460939F0170
:101D90007093A0018093A1019093A201C0909F0134
:101DA000D090A001E090A101F090A20120E030E0ED
:101DB00040E85FE3C701B6010E94461687FD1EC0DA
:101DC00010927501A7019601C701B6010E94B816CD
:101DD000882309F18FE391E00E940B088CE391E0E6
:101DE0000E940B0855CE60919F017091A0018091D7
:101DF000A1019091A2010E942214C8CF20E030E0FE
:101E0000A901C701B6010E948F141816DCF2B1E0D7
:101E1000B0937501D7CF46015701E894B7F82FEF7B
:101E20003FEF4FE75FE7C501B4010E94B81681118B
:101E30000DC02FEF3FEF4FE75FE7C501B4010E94F0
:101E40008F1418161CF483E491E0C6CF2FEF3FEFF8
:101E50004FE75FE4C701B6010E94461618161CF44E
:101E600087E491E0B9CF2FEF3FEF4FE75FECC70179
:101E7000B6010E948F1487FDF3CF20E030E0A90166
:101E8000C701B6010E948F1487FF09C06DE28CEA7A
:101E900091E00E94F401F7FAF094F7F8F0942AE048
:101EA00037ED43EA5BE3C701B6010E9423144B01FF
:101EB0005C010E940D156B017C010E943C159B0189
:101EC000AC01C501B4010E9422144B015C014AE03F
:101ED000C701B6010E9418086EE28CEA91E00E94E8
:101EE000F40120E030E040E251E4C501B4010E9479
:101EF0004B164B015C010E940D156B01F12CE12C7E
:101F00004AE0C701B6010E941808C701B6010E9445
:101F10003C159B01AC01C501B4010E94221420E0D4
:101F200030E040E251E40E944B160E940D1590E013
:101F300080E04AE00E94180851CF0E94A005A8CD79
:101F4000809175012DEC3CEC4CEC5DE3882339F17C
:101F500060919F017091A0018091A1019091A201D7
:101F60000E94231460939F017093A0018093A101AC
:101F70009093A201C0909F01D090A001E090A10198
:101F8000F090A20120E030E040E85FE3C701B60135
:101F90000E94461687FD0EC01092750179CD6091A2
:101FA0009F017091A0018091A1019091A2010E94D6
:101FB0002214D8CF20E030E040E85EE3C701B6014C
:101FC0000E948F1418160CF463CDE1E0E0937501C4
:101FD0005FCD8091750129E23CE54FE85DE3882300
:101FE00009F458C060919B0170919C0180919D0102
:101FF00090919E010E94231460939B0170939C0119
:1020000080939D0190939E01C0909B01D0909C0174
:10201000E0909D01F0909E01C0929F01D092A0019E
:10202000E092A101F092A201C092A301D092A4017A
:10203000E092A501F092A60120E030E040E85FE3E5
:10204000C701B6010E94461687FFA6CF20E030E008
:10205000A901C701B6010E948F1418160CF418CDFF
:10206000F1E0F093750120E030E040E85FE360913B
:102070007C0170917D0180917E0190917F010E9491
:10208000231460937C0170937D0180937E01909373
:102090007F01FECC60919B0170919C0180919D011C
:1020A00090919E010E942214A7CF809175012DEC82
:1020B0003CEC4CEC5CE38823C1F160919B01709196
:1020C0009C0180919D0190919E010E942314609338
:1020D0009B0170939C0180939D0190939E01C09001
:1020E0009B01D0909C01E0909D01F0909E01C092D8
:1020F000A301D092A401E092A501F092A601C092A2
:102100009F01D092A001E092A101F092A20120E0F3
:1021100030E040E85FE3C701B6010E94461620E0C8
:1021200030E0A90187FD4ACF37CF60919B017091C4
:102130009C0180919D0190919E010E942214C7CF25
:102140000E94A005A5CC809175012DEC3CEC4CE4DF
:102150005DE3882349F16091A3017091A40180910E
:10216000A5019091A6010E9423146093A30170938E
:10217000A4018093A5019093A6012DEC3CEC4CE4C6
:102180005DE30E944B1660939B0170939C018093CA
:102190009D0190939E01C090A301D090A401E09076
:1021A000A501F090A601EECE6091A3017091A4016B
:1021B0008091A5019091A6010E942214D6CF80E0C3
:1021C00090E0A0E8BFE38093A3019093A401A093C3
:1021D000A501B093A6015CCC8AEF90E054CCC090EE
:1021E0009B01D0909C01E0909D01F0909E01C092D7
:1021F000A301D092A401E092A501F092A601C092A1
:102200009F01D092A001E092A101F092A2018091E1
:1022100075012EEA37E441EE5DE3882361F1C701E1
:10222000B6010E94231460939B0170939C018093DC
:102230009D0190939E016BCFC0909B01D0909C011B
:10224000E0909D01F0909E01C092A301D092A40164
:10225000E092A501F092A601C0929F01D092A00148
:10226000E092A101F092A201809175012AE939E979
:1022700049E15EE3D2CFC701B6010E942214D3CF59
:102280008091750120E030E040E05FE38823C9F1F0
:1022900060917C0170917D0180917E0190917F0120
:1022A0000E94231460937C0170937D0180937E01D2
:1022B00090937F01C0907C01D0907D01E0907E01E1
:1022C000F0907F01A7019601C701B6010E944B164D
:1022D00027E137EB41E55AE30E944B162DEC3CEC2D
:1022E0004CE45DE30E9422146093A3017093A40167
:1022F0008093A5019093A60120E030E040E85FE3E1
:102300000CCF60917C0170917D0180917E01909154
:102310007F010E942214C6CF8091750120E030E039
:1023200040E05FE38823A9F160917C0170917D0119
:1023300080917E0190917F010E94231460937C0123
:1023400070937D0180937E0190937F01C0907C010A
:10235000D0907D01E0907E01F0907F01A701960171
:10236000C701B6010E944B1627E137EB41E55AE35E
:102370000E944B162DEC3CEC4CE45DE30E942214D1
:1023800060939B0170939C0180939D0190939E01AB
:10239000B3CF60917C0170917D0180917E0190911D
:1023A0007F010E942214CACF80E090E0A0E8BFE342
:1023B0008093A3019093A401A093A501B093A601DB
:1023C0008AE999E9A9E9BEE30DCB80E090E0A0E8B5
:1023D000BFE380939F019093A001A093A101B093CC
:1023E000A2018AE999E9A9E9BEE380939B01909350
:1023F0009C01A0939D01B0939E014ACB80917501F1
:102400002DEC3CEC4CEC5DE38823C9F160919B0121
:1024100070919C0180919D0190919E010E942314D6
:1024200060939B0170939C0180939D0190939E010A
:10243000C0909B01D0909C01E0909D01F0909E0186
:10244000C0929F01D092A001E092A101F092A2015E
:10245000C092A301D092A401E092A501F092A6013E
:102460002AE939E949E15FE3C701B6010E9446164E
:102470002DEC3CEC4CEC5DE387FDA0CD8DCD609167
:102480009B0170919C0180919D0190919E010E9401
:102490002214C6CF80E090E0A0E8BFE380939F01C4
:1024A0009093A001A093A101B093A2018DEC9CECAC
:1024B000ACE4BEE39ACF80E090E0A0E8BFE3809375
:1024C000A3019093A401A093A501B093A6018DEC64
:1024D0009CECACECBDE386CA809175012DEC3CEC24
:1024E0004CE45DE3882309F441C06091A30170913D
:1024F000A4018091A5019091A6010E9423146093EC
:10250000A3017093A4018093A5019093A601C090AC
:10251000A301D090A401E090A501F090A601C09283
:102520009B01D0929C01E0929D01F0929E012DECC6
:102530003CEC4CE45EE3C701B6010E944B1660938D
:102540009F017093A0018093A1019093A20120E0CC
:1025500030E040E85FE3C701B6010E9446162AE971
:1025600039E949E95EE387FD29CD16CD6091A301E4
:102570007091A4018091A5019091A6010E9422145E
:10258000BECF809175012DEC3CEC4CE45DE38823DB
:1025900059F16091A3017091A4018091A5019091DE
:1025A000A6010E9423146093A3017093A401809359
:1025B000A5019093A601C090A301D090A401E09042
:1025C000A501F090A6012DEC3CEC4CE45DE3C701C5
:1025D000B6010E944B1660939B0170939C018093FF
:1025E0009D0190939E01B3CF6091A3017091A401CE
:1025F0008091A5019091A6010E942214D4CF6091F0
:10260000A3017091A4018091A5019091A601209150
:1026100075012223A9F12DEC3CEC4CE45DE30E9412
:1026200023146093A3017093A4018093A501909358
:10263000A601C090A301D090A401E090A501F09064
:10264000A60126E636E646EE5EE3C701B6010E9425
:102650004B1660939B0170939C0180939D01909316
:102660009E0120E030E040E85FE3C701B6010E9430
:1026700046162DEC3CEC4CE45EE387FD9FCC8CCC05
:102680002DEC3CEC4CE45DE30E942214CACF0E9486
:102690006006FEC980916D0190916E018C010F5F03
:1026A0001F4F10936E0100936D014997B4F10E9482
:1026B0004501C0906901D0906A01E0906B01F090F3
:1026C0006C019B01AC012C193D094E095F0921F4F5
:1026D00021E030E040E050E0E8EEF3E00E9FB00192
:1026E0000F9F700D1E9F700D1124072E000C880B7C
:1026F000990B0E94AC133093FF022093FE021092BC
:102700006E0110926D010E94450160936901709302
:102710006A0180936B0190936C0120E030E0232BE1
:1027200011F40C94560A0E94BE01882311F40C94F3
:10273000560A0E9400000C94560A81E090E00C9426
:10274000AE0B0E94CE13A59F900DB49F900DA49F39
:10275000800D911D11240895A1E21A2EAA1BBB1B06
:10276000FD010DC0AA1FBB1FEE1FFF1FA217B3075D
:10277000E407F50720F0A21BB30BE40BF50B661F73
:10278000771F881F991F1A9469F760957095809537
:1027900090959B01AC01BD01CF010895A29FB001AE
:1027A000B39FC001A39F700D811D1124911DB29F85
:1027B000700D811D1124911D0895DB018F939F934E
:1027C0000E94A113BF91AF91A29F800D911DA39F65
:1027D000900DB29F900D1124089597FB072E16F4CB
:1027E000009407D077FD09D00E940E1407FC05D095
:1027F0003EF4909581959F4F0895709561957F4F18
:102800000895EE0FFF1F0590F491E02D09940E94AA
:10281000CE13B7FF0895821B930B0895AA1BBB1B11
:1028200051E107C0AA1FBB1FA617B70710F0A61BD0
:10283000B70B881F991F5A95A9F780959095BC01F1
:10284000CD0108955058BB27AA270E943A140C9432
:10285000F4150E94E61538F00E94ED1520F039F4C9
:102860009F3F19F426F40C94E3150EF4E095E7FB72
:102870000C94B415E92F0E94051658F3BA17620795
:1028800073078407950720F079F4A6F50C943F169A
:102890000EF4E0950B2EBA2FA02D0B01B90190017B
:1028A0000C01CA01A0011124FF27591B99F0593FBF
:1028B00050F4503E68F11A16F040A22F232F342F07
:1028C0004427585FF3CF469537952795A795F04055
:1028D0005395C9F77EF41F16BA0B620B730B840B6A
:1028E000BAF09150A1F0FF0FBB1F661F771F881F22
:1028F000C2F70EC0BA0F621F731F841F48F487957A
:1029000077956795B795F7959E3F08F0B0CF93956B
:10291000880F08F09927EE0F9795879508950E94E4
:10292000901508F481E008950E94A8140C94F41501
:102930000E94ED1558F00E94E61540F029F45F3F23
:1029400029F00C94B41551110C9440160C94E31515
:102950000E94051668F39923B1F3552391F3951B53
:10296000550BBB27AA2762177307840738F09F5FB0
:102970005F4F220F331F441FAA1FA9F335D00E2E1D
:102980003AF0E0E832D091505040E695001CCAF78A
:102990002BD0FE2F29D0660F771F881FBB1F26174D
:1029A00037074807AB07B0E809F0BB0B802DBF0124
:1029B000FF2793585F4F3AF09E3F510578F00C94F3
:1029C000B4150C9440165F3FE4F3983ED4F386951B
:1029D00077956795B795F7959F5FC9F7880F911D14
:1029E0009695879597F90895E1E0660F771F881F00
:1029F000BB1F621773078407BA0720F0621B730BB3
:102A0000840BBA0BEE1F88F7E09508950E940D1510
:102A10006894B1110C94401608950E940D1688F028
:102A20009F5798F0B92F9927B751B0F0E1F0660F92
:102A3000771F881F991F1AF0BA95C9F714C0B130D3
:102A400091F00E943F16B1E008950C943F16672F55
:102A5000782F8827B85F39F0B93FCCF38695779502
:102A60006795B395D9F73EF49095809570956195EB
:102A70007F4F8F4F9F4F0895E89409C097FB3EF416
:102A800090958095709561957F4F8F4F9F4F9923BB
:102A9000A9F0F92F96E9BB279395F6958795779539
:102AA0006795B795F111F8CFFAF4BB0F11F460FFF9
:102AB0001BC06F5F7F4F8F4F9F4F16C0882311F051
:102AC00096E911C0772321F09EE8872F762F05C065
:102AD000662371F096E8862F70E060E02AF09A9500
:102AE000660F771F881FDAF7880F9695879597F9F5
:102AF00008950E94271690F09F3748F4911116F020
:102B00000C94401660E070E080E89FEB089526F496
:102B10001B16611D711D811D0C94BA150C94D515E1
:102B2000990F0008550FAA0BE0E8FEEF16161706DE
:102B3000E807F907C0F012161306E407F50798F046
:102B4000621B730B840B950B39F40A2661F0232B5F
:102B5000242B252B21F408950A2609F4A140A695DB
:102B60008FEF811D811D089597F99F6780E870E0C0
:102B700060E00895882371F4772321F09850872B23
:102B8000762F07C0662311F499270DC09051862B2C
:102B900070E060E02AF09A95660F771F881FDAF7D9
:102BA000880F9695879597F908959F3F31F091503A
:102BB00020F4879577956795B795880F911D969521
:102BC000879597F908959FEF80EC089500240A9463
:102BD0001616170618060906089500240A941216F8
:102BE0001306140605060895092E0394000C11F42B
:102BF000882352F0BB0F40F4BF2B11F460FF04C0D8
:102C00006F5F7F4F8F4F9F4F089557FD9058440F30
:102C1000551F59F05F3F71F04795880F97FB991F3B
:102C200061F09F3F79F087950895121613061406F8
:102C3000551FF2CF4695F1DF08C016161706180685
:102C4000991FF1CF869571056105089408950E943A
:102C50000D16A0F0BEE7B91788F4BB279F3860F4C3
:102C60001616B11D672F782F8827985FF7CF8695A6
:102C700077956795B11D93959639C8F30895E894B3
:102C8000BB2766277727CB0197F908950E949015F7
:102C900008F48FEF08950E945E160C94F4150E94BC
:102CA000E61538F00E94ED1520F0952311F00C94F4
:102CB000B4150C94E31511240C9440160E940516CB
:102CC00070F3959FC1F3950F50E0551F629FF0017F
:102CD000729FBB27F00DB11D639FAA27F00DB11D98
:102CE000AA1F649F6627B00DA11D661F829F222721
:102CF000B00DA11D621F739FB00DA11D621F839FA8
:102D0000A00D611D221F749F3327A00D611D231F7D
:102D1000849F600D211D822F762F6A2F11249F57CB
:102D200050409AF0F1F088234AF0EE0FFF1FBB1FCE
:102D3000661F771F881F91505040A9F79E3F51058D
:102D400080F00C94B4150C9440165F3FE4F3983E69
:102D5000D4F3869577956795B795F795E7959F5F37
:102D6000C1F7FE2B880F911D9695879597F90895C9
:102D70000E949015880B990B089581E090E0F894DB
:082D80000C94C216F894FFCF79
:102D8800000000005C085C085C08EF0604080808FE
:102D9800000000005D050105FF04EF06040851016D
:102DA8009E0200000000F401540181014102B201B9
:102DB8009001A40153544152545550000D0A006E1D
:0C2DC800616E00696E66006F76660000A8
:00000001FF
